:1000000007C1000033C1000031C100002FC1000052
:100010002DC100002BC1000029C1000027C1000034
:1000200025C1000023C1000021C100001FC1000044
:100030001DC100008CC4000019C1000017C10000E0
:1000400015C1000021C4000011C100000FC1000053
:100050000DC1000046C4000009C1000044C30000F7
:1000600005C1000003C1000001C10000FFC0000085
:10007000FDC00000FBC00000F9C00000F7C0000098
:10008000D6C30000F3C00000F1C00000EFC00000C4
:10009000EDC00000EBC00000E9C00000E7C00000B8
:1000A000E5C00000E3C0000095C30000DFC0000011
:1000B000DDC00000DBC00000D9C000005EC300004E
:1000C000D5C00000D3C00000D1C00000CFC00000E8
:1000D000CDC00000CBC00000C9C00000C7C00000F8
:1000E000C5C0000006020902F801FC01000240023E
:1000F0000D02110217021B021F02250229022D0206
:100100004002330237023B0200000A0B02090C0DC9
:100110000E080703040100000000000000000000BA
:1001200000000000000000000000000000000000CF
:10013000000000001211100000000000000000008C
:1001400000000000000000000000000000000000AF
:100150002200250028002B002E003100340002016F
:100160000000050108010B01000021002400270008
:100170002A002D00300033000101000004010701B6
:100180000A0105050505070508080808020202021C
:100190000A0A080804040404010101010101010123
:1001A0000303030303030303040707070C0C0C0CEE
:1001B0000C0C0C0C020202020606060606060606D7
:1001C0000B0B0B0B0B0B0B0B010210202008081064
:1001D00020401020408002010201080402010102B7
:1001E0000408102040808040201008040201800490
:1001F00002018040201008040201080402010102EB
:100200000408102040800102040810204080DD0412
:1002100011241FBECFEFD1E2DEBFCDBF00E00CBF87
:1002200012E0A0E0B2E0EEE2FCE000E00BBF02C0B2
:1002300007900D92A230B107D9F722E0A2E0B2E018
:1002400001C01D92A33AB207E1F711E0C8E0D1E086
:1002500000E005C021970109802FFE01DED4C730E0
:10026000D10780E00807B1F7C4D3DFC4C9CECF926D
:10027000DF92EF92FF92DC01A03282E0B8070CF02F
:100280003CC0B7FD06C0A53BB1052CF0A4EBB0E027
:1002900002C0A0E0B0E08091A10228E830E069014E
:1002A000C81AD10887FDD394CC0CDD1CCC0CDD1C06
:1002B0000D2C000CEE08FF088091A20228E532E028
:1002C000281B310987FD3395220F331F220F331F5F
:1002D000A901330F660B770B9A01AB012C193D096D
:1002E0004E095F0957D424EB30E040E050E02CD4B5
:1002F000C20ED31EE41EF51ED6019091A0029033CB
:1003000098F58091A10248E850E0481B510987FD0B
:100310005395440F551F440F551FA417B5078CF074
:100320008091A20228E532E0281B310987FD339530
:10033000220F331F220F331FAD012A173B070CF486
:10034000A90142505109440F551F2FB7F894892F26
:1003500090E0FC01EE0FFF1F8E0F9F1FFC01E05F7E
:10036000FD4F528341832FBFFF90EF90DF90CF90DE
:10037000089590E0FC01E853FE4F2491FC01EE57F4
:10038000FE4F8491882399F090E0880F991FFC011B
:10039000E859FE4FA591B491FC01E25BFE4F8591B7
:1003A00094918FB7F894EC91E22BEC938FBF089562
:1003B000362F90E0FC01E85FFE4F4491FC01E853CA
:1003C000FE4F2491FC01EE57FE4F9491992309F4BE
:1003D0006AC0442309F454C050E0FA013197E23175
:1003E000F10508F04DC08827EE58FF4F8F4F15C418
:1003F000809180008F7707C0809180008F7D03C03F
:1004000080918000877F809380003AC084B58F7789
:1004100002C084B58F7D84BD33C08091B0008F77DA
:1004200003C08091B0008F7D8093B00029C080917F
:1004300090008F7707C0809190008F7D03C08091DE
:100440009000877F809390001BC08091A0008F77E1
:1004500007C08091A0008F7D03C08091A000877F9E
:100460008093A0000DC0809120018F7707C08091FC
:1004700020018F7D03C080912001877F8093200120
:10048000E92FF0E0EE0FFF1FE25BFE4FA591B49164
:100490008FB7F894EC91311103C020952E2301C041
:1004A0002E2B2C938FBF08953FB7F89480910C02A8
:1004B00090910D02A0910E02B0910F0226B5A89B5B
:1004C00005C02F3F19F00196A11DB11D3FBFBA2FE6
:1004D000A92F982F8827820F911DA11DB11DBC0146
:1004E000CD0142E0660F771F881F991F4A95D1F70B
:1004F00008958F929F92AF92BF92CF92DF92EF9228
:10050000FF92D2DF4B015C0182E3C82ED12CE12C9B
:10051000F12CCADFDC01CB0188199909AA09BB09B2
:10052000883E9340A105B10558F021E0C21AD108D8
:10053000E108F10888EE880E83E0981EA11CB11C2A
:10054000C114D104E104F10421F7FF90EF90DF9092
:10055000CF90BF90AF909F908F900895CF92DF92F1
:10056000EF92FF920F931F93CF93DF936C018B0158
:100570007A01EC01CD5FDD4F888187FF04C0FB016C
:100580001182108224C08CE08C9D90018D9D300DD5
:1005900011248881A901480F511D87FD5A9580912A
:1005A000020290E04817590794F48881A901480F86
:1005B000511D87FD5A95CA01FA01EE0FFF1F8E0FDC
:1005C0009F1FFC01E05FFD4F808186FD19C088817F
:1005D0008F5F88838CE08C9D90018D9D300D112460
:1005E0008881A901480F511D87FD5A95809102020B
:1005F00090E048175907B4F488818C303CF112C060
:100600008881280F311D87FD3A95F901EE0FFF1FF4
:100610002E0F3F1FF901E05FFD4F808160E08F7377
:10062000C7DED5CFF80180819181049680349C4942
:1006300018F480E49CE904C0F8018081918104965B
:10064000F701918380838FEF888344C0F801408154
:1006500051818881B901680F711D87FD7A95CB01A1
:10066000FB01EE0FFF1F8E0F9F1FFC01E05FFD4F90
:1006700081819281840F951FF70191838083888106
:10068000A901480F511D87FD5A95CA01FA01EE0FC5
:10069000FF1F8E0F9F1FFC01E05FFD4F808186FFD3
:1006A00019C08881280F311D87FD3A95F901EE0F99
:1006B000FF1F2E0F3F1FF901E05FFD4F808161E0BA
:1006C0008F73DF91CF911F910F91FF90EF90DF908B
:1006D000CF906ECEDF91CF911F910F91FF90EF9051
:1006E000DF90CF9008951F920F920FB60F921124B2
:1006F0002F933F938F939F93AF93BF938091080263
:1007000090910902A0910A02B0910B023091070268
:1007100023E0230F2D3720F40196A11DB11D05C044
:1007200026E8230F0296A11DB11D20930702809396
:10073000080290930902A0930A02B0930B028091E1
:100740000C0290910D02A0910E02B0910F02019641
:10075000A11DB11D80930C0290930D02A0930E0277
:10076000B0930F02BF91AF919F918F913F912F91C5
:100770000F900FBE0F901F9018951F920F920FB6FB
:100780000F9211240BB60F922F933F934F935F93C9
:100790006F937F938F939F93AF93BF93EF93FF9349
:1007A00048E251E064E271E080E090E0D7DEFF9142
:1007B000EF91BF91AF919F918F917F916F915F91D9
:1007C0004F913F912F910F900BBE0F900FBE0F9046
:1007D0001F9018951F920F920FB60F9211240BB60F
:1007E0000F922F933F934F935F936F937F938F93CA
:1007F0009F93AF93BF93EF93FF9348EA50E064EA6F
:1008000070E083E090E0AADEFF91EF91BF91AF919D
:100810009F918F917F916F915F914F913F912F9118
:100820000F900BBE0F900FBE0F901F9018951F9248
:100830000F920FB60F9211240BB60F922F933F9386
:100840004F935F936F937F938F939F93AF93BF93D8
:10085000EF93FF9348E950E064E970E082E090E0B4
:100860007DDEFF91EF91BF91AF919F918F917F912D
:100870006F915F914F913F912F910F900BBE0F9011
:100880000FBE0F901F9018951F920F920FB60F92E8
:1008900011240BB60F922F933F934F935F936F9357
:1008A0007F938F939F93AF93BF93EF93FF9348E80A
:1008B00050E064E870E081E090E050DEFF91EF915D
:1008C000BF91AF919F918F917F916F915F914F9168
:1008D0003F912F910F900BBE0F900FBE0F901F9066
:1008E00018951F920F920FB60F9211240BB60F920C
:1008F0002F933F934F935F936F937F938F939F9328
:10090000AF93BF93EF93FF9380910102882331F05F
:1009100061E08EE04DDD1092010206C060E08EE0E5
:1009200047DD81E080930102FF91EF91BF91AF918C
:100930009F918F917F916F915F914F913F912F91F7
:100940000F900BBE0F900FBE0F901F9018951F9227
:100950000F920FB60F9211240BB60F922F933F9365
:100960004F935F936F937F938F939F93AF93BF93B7
:10097000EF93FF9380910002882331F061E08FE0D4
:1009800017DD1092000206C060E08FE011DD81E00B
:1009900080930002FF91EF91BF91AF919F918F9152
:1009A0007F916F915F914F913F912F910F900BBE6F
:1009B0000F900FBE0F901F90189580910202803308
:1009C000A0F491E0980F909302028093A00290E02F
:1009D000FC01EE0FFF1F8E0F9F1FFC01E05FFD4F1C
:1009E00088EB9BE09283818308958FEF8093A00230
:1009F0000895F89482E08093B00097E09093B1005E
:100A00009CE99093B300809370001092B20084BD73
:100A100095E095BD9EE297BD80936E0016BC7894DC
:100A20008091A002803308F04EC088E0A2DC809163
:100A3000A002E82FF0E09F01220F331FE20FF31F07
:100A4000E05FFD4F9081907C986090831092A102AE
:100A50001092A2026CE0D5D09CE0899FB0011124D5
:100A600040E050E09A01260F371FF901EE0FFF1FFB
:100A70002E0F3F1FF901E05FFD4F908196FD16C0DC
:100A80004F5F5F4F4C30510569F7813089F5109207
:100A9000800082E080938100109285001092840093
:100AA000B19A80916F00826080936F00E091A00204
:100AB000F0E0CF01880F991FE80FF91FE05FFD4FAD
:100AC0008081806480838EE054DC8FE052DCC0E063
:100AD000D0E0CE01CCDB0DDD2196CA35D105C9F7BA
:100AE000CAE5D0E0CE01C3DB04DD2197D9F7EFCF13
:100AF000823061F4109290008093910010929500E2
:100B00001092940088BB80937100D0CF833069F439
:100B10001092A00082E08093A1001092A500109294
:100B2000A40089BB80937200C1CF8111BFCF109206
:100B3000200182E08093210110922501109224016E
:100B40008ABB80937300B2CF052E97FB16F40094F6
:100B50000FD057FD05D024D007FC02D046F408C0C2
:100B600050954095309521953F4F4F4F5F4F0895D9
:100B700090958095709561957F4F8F4F9F4F089509
:100B800031D0A59F900DB49F900DA49F800D911D15
:100B900011240895B7FFF4CFF3DF821B930B089560
:100BA000A1E21A2EAA1BBB1BFD010DC0AA1FBB1F71
:100BB000EE1FFF1FA217B307E407F50720F0A21BE3
:100BC000B30BE40BF50B661F771F881F991F1A9450
:100BD00069F760957095809590959B01AC01BD017A
:100BE000CF010895A29FB001B39FC001A39F700DD4
:100BF000811D1124911DB29F700D811D1124911D25
:100C00000895991B79E004C0991F961708F0961B68
:100C1000881F7A95C9F780950895EE0FFF1F881FEA
:0E0C20008BBF0790F691E02D1994F894FFCF4A
:020C2E000101C2
:00000001FF
